:040000008A11112828
:10000800FE00030E83120313B0000408B1000A08AF
:10001800B2007F08B3008A155C2D8A111328831754
:100028004730FD000A30FE00A730FF003E30840054
:100038008A15D0228A118313DC30FD000730FE00B8
:10004800E530FF00C13084008A15D0228A115C3067
:10005800FD000A30FE009830FF00553084008A15F4
:10006800D0228A1183172030840030308A159F22CD
:100078008A118313A0308400C1308A159F228A1107
:100088004830840055308A159F2283018A114C28F4
:1000980083169F0183129F0103179F019E019E17DC
:1000A800A73003139F00503083169F0075308F00D0
:1000B800203085008601083087008B170B178C14B9
:1000C8000330831292047830920419308316920018
:1000D800831212151816831618128312981783168E
:1000E8008C16831207100713051107128510871243
:1000F800051005128713871006128A15F8258A112C
:10010800CD2BA401E22B9F3083129F009F149F18D0
:100118008B281E088316E800E9016808E900E80151
:100128001E086807A0000030031801306907A10005
:10013800A201A11BA2032208A30023088312B7006F
:10014800831622088312B600831621088312B5008D
:10015800831620088312B4000030BB000030BA00B8
:100168001330B9008830B8008A1543248A1137083B
:100178008316A300831236088316A200831235085B
:100188008316A100831234088316A0002008E80013
:100198002108E9002208EA002308EB000A300310CE
:1001A800EB0CEA0CE90CE80CFF3E031DD3286B08A6
:1001B800A3006A08A2006908A1006808A0008830A6
:1001C8008312B8008830B90000308A153A238A11A2
:1001D800A630C0000030C100E530C2008830C3003E
:1001E800831623088312C700831622088312C600C9
:1001F800831621088312C500831620088312C400C1
:100208008A1108248A11A630B8000030B9000130DC
:100218008A153A238A11831624080319CD2B013035
:10022800FF007F0883120313D407CD2BB830831245
:10023800B8000030B90000308A153A238A11AF306F
:1002480008298A1510258A110F297F308312B800D2
:100258008830B90000308A153A238A117630B80000
:100268008830B90001308A153A238A118316240888
:100278000319CD2B831206131329831207116D302E
:10028800B8008830B90000308A153A238A11D33073
:10029800C0000030C100F730C2008830C3004B08EE
:1002A800C5004A08C4008A1108248A11D330B8004E
:1002B8000030B90001308A153A238A113330831689
:1002C8000313EA00BB30E900DF30E800E80B6A29D5
:1002D800E90B6A29EA0B6A2900008A1582248A1127
:1002E80041080317B000B2013008320203188E2902
:1002F8000D3083160313E900FB30E800E80B822970
:10030800E90B822900000130FF007F0883120317E0
:10031800B20778290313851A8E290715D301D30A42
:10032800851A9929403086069429D3010711D330BC
:10033800C0000030C1000830C2008930C3004B083B
:10034800C5004A08C4008A1108248A11D330B800AD
:100358000030B90001308A153A238A11851AB2296A
:10036800033083160313EA008A30E9005530E800A9
:10037800E80BBC29E90BBC29EA0BBC290000831255
:100388000313CA01CB010317B601963036020318CE
:10039800CD2B0313851ED7290130FF007F08D40712
:1003A800851ECD2BD429413083160313E900EE3086
:1003B800E800E80BDD29E90BDD290130FF007F08A3
:1003C80083120317B607C9290530DC000030DD00A9
:1003D8008A1582248A1142088316DF008312410895
:1003E8008316DE008A15C5248A115C08033E831231
:1003F8000317B500CA300313C0000030C100EE3047
:10040800C2008830C3008A1108248A11CA30B80093
:100418000030B90000308A153A238A110317B30156
:100428000330BA003A0803196F2AC1300313C00019
:100438000030C100B530C2008830C300031735084A
:1004480083160313E800E90168088312C4008316C1
:1004580069088312C50003173A0883160313EA00D4
:10046800EB016A088312C60083166B088312C70063
:100478008A1108248A11C130B8000030B90001304F
:100488008A153A238A110317B9016430390203180F
:100498006A2A1A3083160313E900F830E800E80BDB
:1004A800532AE90B532A83120313851E642A851ADB
:1004B8005B2A0317B301B30ABA01BA0A6530B90057
:1004C8000130FF007F080317B907492A0130BA0233
:1004D8003A08031D192A3308031D1329B701B4016B
:1004E8000130BC000030BD00FD303D02E83003198A
:1004F8003C0203186B2B031307118A1582248A11F7
:1005080041080317B100311C8F2A0130BC070318BA
:10051800BD0A0030BD07CA300313C0000030C10057
:100528000030C2008930C30003173D080313C5001B
:1005380003173C080313C4008A1108248A11CA301F
:10054800B8000030B90000308A153A238A11C1304A
:10055800C0000030C100C030C2008830C30003179B
:10056800370883160313E800E90168088312C400FA
:10057800831669088312C5008A1108248A11C130BC
:10058800B8000030B90001308A153A238A110317E0
:10059800BB0100303D020A3003193C020318D62A79
:1005A8006430E92A00303D02213003193C02031867
:1005B800DF2A4B30E92A00303D023C3003193C0267
:1005C8000318E82A3230E92A1E30BB0035088316A2
:1005D8000313E800E90168088312BB008316690861
:1005E8008312BC0003173D080313BE0003173C0821
:1005F8000313BD008A1599238A113B080317B80015
:100608003B0803195E2B0313851E3F2B031738087D
:10061800031D372B0130FF007F08B707C1300313D4
:10062800C0000030C100C030C2008830C3000317CA
:10063800370883160313E800E90168088312C40029
:10064800831669088312C5008A1108248A11C130EB
:10065800B8000030B90001308A153A238A1103170F
:10066800B801B80A3D2BB401B40AE930BC00FD302A
:10067800BD00BB01BB0A03173B03031D4C2B380805
:10068800031D4C2BB401B40AE930BC00FD30BD0099
:100698000313851A4C2B1A3083160313E900F8301C
:1006A800E800E80B552BE90B552B01308312031793
:1006B800BB02042B0130BC070318BD0A0030BD077C
:1006C800FD303D02E83003193C02031C7F2A340840
:1006D8000319CD2B03130715851A702BCA30C000D8
:1006E8000030C100DC30C2008830C3008A11082401
:1006F8008A11CA30B8000030B90000308A153A2390
:100708008A11851A8A2B40308606852B851A8A2BF2
:100718000317B40103130711CD2B64308312B800FB
:100728008830B90000308A153A238A113E30C0005B
:100738000130C100A930C2008830C3004C088316BC
:10074800E800E90168088312C40083166908831267
:10075800C5004908C7004808C6008A1108248A113C
:100768003E30B8000130B90001308A153A238A11A9
:10077800831624080319CD2B8312CD013E298A152F
:1007880038278A11831624080319CD2B83120613E0
:10079800D401003083120313851A0130831625060D
:1007A8000319852800308312851A01308316A500A5
:1007B8008312851EE22B8316A401A40A831254080F
:1007C8008316E800E9016908003A0319EC2BCD2BE0
:1007D8006808003A03198728013A03191A29033AC5
:1007E80003192529013A03192929073A0319412927
:1007F800013A0319E829033A0319912B013A03191D
:10080800C32BCD2B8A11112844308316E0008312A4
:1008180043088316DD00831242088316DC00831226
:10082800C20A0319C30A83165D088312FF008316E0
:100838005C08840083128A1500208A118316E70059
:1008480067080319E32D2530670603193C2C83122A
:10085800400884008317411C8313831667088000AF
:1008680001308312C0070318C10A0030C1070B2CDE
:10087800E501E601E401482C641501308312C20742
:100888000318C30A0030C30783124308FF00420855
:1008980084008A1500208A118316DC00DD015D08BA
:1008A800003A0319582C5D2C5C08303A0319402C87
:1008B8005D2C83124308FF00420884008A1500203B
:1008C8008A118A15BE228A11031CAC2C8316E501F5
:1008D800E6010A308312B4000030B50083166608BA
:1008E8008312B700831665088312B6008A15192388
:1008F8008A1135088316E600831234088316E5004A
:1009080083124308FF00420884008A1500208A11D8
:10091800D03E8316DC00FF3003180030DD005C0891
:10092800E5070318E60A5D08E60701308312C207E7
:100938000318C30A0030C3074308FF0042088400B5
:100948008A1500208A118A15BE228A1103186D2C77
:1009580043088316DD00831242088316DC008312E5
:10096800C20A0319C30A83165D088312FF0083169F
:100978005C08840083128A1500208A118316E70018
:10098800DE00DF015F08003A0319CB2C0B2C5E0850
:10099800003A0319E32D643A0319D62C0D3A0319CA
:1009A800D62C0B2C6008840083130008E200840A0C
:1009B8000008E3000230FF007F08E007E31FED2C8A
:1009C8000330FF007F08E404E209E309E20A03199F
:1009D800E30AE701E70A6708DC005C07123E8400C7
:1009E80088300318013E8312FF008A1500208A11FF
:1009F8008316DD0083128A1500208A118316DE0013
:100A08005E086302031D0A2D5D086202031C142D93
:100A18000130FF007F08E70705306706031DEF2C4C
:100A2800650866040319222D640803390319222D69
:100A3800FF30E5070318E60AFF30E6076608803A44
:100A4800803C031D292D650867020318372D83167E
:100A580003136708DC00DD015C08E5025D08031C80
:100A6800E603E6023B2D83160313E501E601641D48
:100A78006A2D6408033903194F2D83124008840036
:100A88008317411C83132D3080000130C0070318E1
:100A9800C10A0030C1078316650866040319992D39
:100AA8008312400884008317411C83133030800070
:100AB8000130C0070318C10A0030C107FF30831690
:100AC800E5070318E60AFF30E607502D65086604B7
:100AD8000319872D8312400884008317411C831350
:100AE800203080000130C0070318C10A0030C10758
:100AF800FF308316E5070318E60AFF30E6076508A6
:100B08006604031D6E2D640803390319992D831299
:100B1800400884008317411C83132D308000013066
:100B2800C0070318C10A0030C10783166708E1002F
:100B3800FF30FF007F088316E107610A03190B2CB9
:100B48000A308312BB000030BC0083166108DC0049
:100B58005C07123E840088300318013E8312FF00B0
:100B68008A1500208A11B4008A1500208A11B50060
:100B7800831663088312B700831662088312B600CF
:100B88008A1507248A113508BE003408BD008A1565
:100B980099238A113B08303E8316E70083124008E8
:100BA80084008317411C8313831667088000013073
:100BB8008312C0070318C10A0030C1079C2D831295
:100BC800400884008317411C8313800108002430E7
:100BD800A8002308A5002208A400A20A0319A30A52
:100BE8002508FF00240884008A1500208A11AF0018
:100BF8002F080319872F25302F060319112E2008D7
:100C080084008317211C83132F0880000130A0075C
:100C18000318A10A0030A107ED2DAD01AE01AC010A
:100C28001C2E2C150130A2070318A30A0030A307B5
:100C38002308FF00220884008A1500208A11A400D6
:100C4800A5012508003A03192A2E2F2E2408303A28
:100C58000319152E2F2E2308FF00220884008A1559
:100C680000208A118A15B0228A11031C712EAD0149
:100C7800AE010A30F0000030F1002E08F3002D0814
:100C8800F2008A15F8228A117108AE007008AD00CA
:100C98002308FF00220884008A1500208A11D03E0C
:100CA800A400FF3003180030A5002408AD0703187E
:100CB800AE0A2508AE070130A2070318A30A0030C0
:100CC800A3072308FF00220884008A1500208A1140
:100CD8008A15B0228A1103183D2E2308A500220880
:100CE800A400A20A0319A30A2508FF002408840007
:100CF8008A1500208A11AF00A600A7012708003A2C
:100D08000319872EED2D2608003A0319872F643A18
:100D18000319922E0D3A0319922EED2D28088400FE
:100D280083130008AA00840A0008AB000230FF0001
:100D38007F08A807AB1FA92E0330FF007F08AC046B
:100D4800AA09AB09AA0A0319AB0AAF01AF0A2F080F
:100D5800A4002407123E840088300318013EFF00D7
:100D68008A1500208A11A5008A1500208A11A6007C
:100D780026082B02031DC22E25082A02031CCC2E8E
:100D88000130FF007F08AF0705302F06031DAB2E8B
:100D98002D082E040319DA2E2C0803390319DA2E2C
:100DA800FF30AD070318AE0AFF30AE072E08803AB1
:100DB800803C031DE12E2D082F020318EF2E83120D
:100DC80003132F08A400A5012408AD022508031C5D
:100DD800AE03AE02F32E83120313AD01AE012C1D38
:100DE8001E2F2C0803390319062F200884008317A7
:100DF800211C83132D3080000130A0070318A10A9D
:100E08000030A1072D082E0403194A2F200884005A
:100E18008317211C8313303080000130A00703188A
:100E2800A10A0030A107FF30AD070318AE0AFF3052
:100E3800AE07062F2D082E040319392F2008840029
:100E48008317211C8313203080000130A00703186A
:100E5800A10A0030A107FF30AD070318AE0AFF3022
:100E6800AE072D082E04031D222F2C080339031961
:100E78004A2F200884008317211C83132D308000FB
:100E88000130A0070318A10A0030A1072F08A90004
:100E9800FF30FF007F08A907290A0319ED2D0A3042
:100EA800F7000030F8002908A4002407123E840047
:100EB80088300318013EFF008A1500208A11F000CF
:100EC8008A1500208A11F1002B08F3002A08F20085
:100ED8008A15CB238A117108FA007008F9008A155F
:100EE80067238A117708303EAF00200884008317F3
:100EF800211C83132F0880000130A0070318A10AC2
:100F08000030A1074C2F200884008317211C83136D
:100F180080010800F6018312031352087607F000D7
:100F2800F101F10D7108803AFF0080307F02031D46
:100F38009F2F17307002031CA62F7608AF3E84003F
:100F48002030CE2F7608831203135907F1005A0870
:100F5800F0000318F00AF61BF0037008F200831281
:100F6800031352087107F4007208F3000318F30A18
:100F7800D21BF3037308F500750883120313FF00EF
:100F8800740884008A1500208A11FF007608AF3E95
:100F980084007F08831380000130FF007F08F60774
:100FA80008307602031C8F2F173083120313520266
:100FB800031CE02FD20108000130FF007F08D20790
:100FC800080063342E342034203420342034203474
:100FD800203400344E34613473346F3462346B34EB
:100FE8007934203400342D342D342D342D342034EC
:100FF8006D34733420340034FF1B0A2883137F18A0
:1010080083170008840A0319FF0A08007F087F393C
:101018008A000408840A0319FF0A82000134003494
:101028000A34003464340034E83403341034273488
:10103800543468346534203465346E34643421346F
:101048000034493474347334203464346F346E3467
:1010580065340034203420342034203420342034C3
:10106800203420340034433443342D34423459344A
:101078002D34533441340034703473346C3469344F
:1010880062342E3463347A340034203420345034BB
:1010980053344C34493442342034003445343434E5
:1010A800413420343234303432343434003420344F
:1010B80020342034203420342034203420340034A8
:1010C8002734533474346F3470346B3479342734A0
:1010D80000345234653461346B34633465343A34E3
:1010E8002034003420342034203420342034343464
:1010F8003034343400344534723472346F347234DA
:1011080020342034203400344E3461347034653453
:10111800743469343A342034003420342034203490
:1011280020342034203420344334653473346B3411
:10113800613420344C346934703461342034683478
:101148006C342E346E342E3400342534303432343A
:1011580064342E34253430343334643420347334D6
:10116800003463342E34203425346434203420345D
:101178002D34253464340034253430343334643425
:10118800203462346F3464347534003420342034AD
:1011980020342034203420342034203400343134B6
:1011A80035343A3432343334203420342034003463
:1011B80053347034613474346E34653421342034DB
:1011C8000034253430343434643420346D345634A7
:1011D800203400344E34613473346F3462346B34E9
:1011E8007934203400342D342D342D342D342D34DD
:1011F80020346D34733400343D343E342034253487
:10120800303435346434003425343034353464347F
:0812180020346D3473340034FE
:1015300001340034003400349134883403346400BE
:101540008001840A0406031900340406A02A3034FA
:1015500030342E343034303430342034733400346A
:10156000F100F0013A3071020318BC2A30307102E8
:10157000031CBC2AF001F00A700C0800B500B4018D
:101580003A3035020318CA2A30303502031CCA2A01
:10159000B401B40A340C08007E088A007F08820077
:1015A000CC228A158000840A04087D0603190034C1
:1015B000FF0A0319FE0AD02A5108031DEC2AB8308D
:1015C000A0000030A100D330A2008830A3008A110F
:1015D000EB25D101D10A0800B830A0000030A100ED
:1015E000CA30A2008830A3008A11EB25D10108007F
:1015F000F401F501701C022B7208F4070318F50AB8
:101600007308F50701300310F20DF30DFF3E031DC3
:10161000032B01300310F10CF00CFF3E031D0A2BCD
:1016200070087104031DFA2A7508F1007408F000AF
:101630000800B801B901341C232B3608B807031879
:10164000B90A3708B90701300310B60DB70DFF3ED0
:10165000031D242B01300310B50CB40CFF3E031DF9
:101660002B2B34083504031D1B2B3908B500380813
:10167000B4000800BA003A08031D402B8030412B0B
:10168000C030B40000308A1597268A1583120313E0
:101690003908FF00380884008A1500208A15003AAE
:1016A000031908003908FF00380884008A15002053
:1016B0008A15B40001308A1597268A1501308312E5
:1016C0000313B8070318B90A0030B907462B770887
:1016D00078040319942BFB01FB0AF81B7B2B0130C8
:1016E0000310F70DF80DFF3E031D702B0130FF00B6
:1016F0007F08FB076D2B78087A02031D812B770882
:101700007902031C892B7708F9027808031CFA0375
:10171000FA0201300310F80CF70CFF3E031D8A2B70
:101720000130FB02031D7B2B7A08F8007908F700D3
:1017300008003B083C040319C62BBF01BF0ABC1BB1
:10174000AD2B01300310BB0DBC0DFF3E031DA22BC2
:101750000130FF007F08BF079F2B3C083E02031D9E
:10176000B32B3B083D02031CBB2B3B08BD023C08CE
:10177000031CBE03BE0201300310BC0CBB0CFF3EB9
:10178000031DBC2B0130BF02031DAD2B3E08BC0066
:101790003D08BB000800F501F6017008710403194B
:1017A000022CF401F40AF11BE12B01300310F00DBF
:1017B000F10DFF3E031DD62B0130FF007F08F4071B
:1017C000D32B01300310F50DF60DFF3E031DE22B68
:1017D00071087302031DEE2B70087202031CF72BB5
:1017E0007008F2027108031CF303F3027514013050
:1017F0000310F10CF00CFF3E031DF82B0130F40236
:10180000031DE12B7608F1007508F0000800B9010E
:10181000BA013408350403193E2CB801B80AB51BC7
:101820001D2C01300310B40DB50DFF3E031D122C0D
:101830000130FF007F08B8070F2C01300310B90DED
:10184000BA0DFF3E031D1E2C35083702031D2A2C3E
:1018500034083602031C332C3408B6023508031C46
:10186000B703B702391401300310B50CB40CFF3EB6
:10187000031D342C0130B802031D1D2C3A08B5009D
:101880003908B40008000030C0000030BF0000304C
:10189000BE000030BD00341C612C3808BD0739087B
:1018A00003110318013E031DBE073A080311031874
:1018B000013E031DBF073B0803110318013E031D32
:1018C000C0070130BC000310B80DB90DBA0DBB0D37
:1018D000BC0B632C01300310B70CB60CB50CB40C68
:1018E000FF3E031D6B2C3708360435043404031DFA
:1018F0004B2C4008B7003F08B6003E08B5003D0835
:10190000B4000800831203135808B7005708B60044
:101910005608B5005508B4004130BB00C630BA00C7
:101920004E30B9006D30B8008A1543248A15370847
:10193000D8003608D7003508D6003408D50039302D
:10194000D507303003183130D60700300318013086
:10195000D707003003180130D8075508C3005608D0
:10196000C4005708C5005808C6001030C700460D0F
:10197000C60CC50CC40CC30CC70BB72CFF304305F9
:10198000C1007F304405C2000800E101DF1FCF2CF9
:10199000DE09DF09DE0A0319DF0AE101E10ADD1FC2
:1019A000D62CDC09DD09DC0A0319DD0A5C085D04BC
:1019B0000319032DE001E00ADD1BEA2C01300310BE
:1019C000DC0DDD0DFF3E031DDF2C0130FF007F0825
:1019D000E007DC2C5D085F02031DF02C5C085E0252
:1019E000031CF82C5C08DE025D08031CDF03DF0229
:1019F00001300310DD0CDC0CFF3E031DF92C01301F
:101A0000E002031DEA2C610803190B2DDE09DF0932
:101A1000DE0A0319DF0A5F08DD005E08DC0008004B
:101A200080308312B40000308A1597268A158312FD
:101A30000313B801083038020318372D3808203E48
:101A4000840083170008031D272D20302B2D380814
:101A5000203E84000008B40001308A1597268A15BC
:101A60000130FF007F0883120313B8071A2DC0301E
:101A7000B40000308A1597268A151030831203139C
:101A80003802031808003808203E84008317000835
:101A9000031D4C2D2030502D3808203E84000008B6
:101AA000B40001308A1597268A150130FF007F089F
:101AB00083120313B8073D2D8C1CBD2D0130FF0090
:101AC0007F08CF0764304F02031C6D2D5403031DA4
:101AD0006C2D8A118E278A15CF010130FF007F08F7
:101AE000DB0796305B02031C792D8A15DC228A15F0
:101AF000DB010130FF007F08CE07FB304E02031CE4
:101B00008A2DCE010130FF007F08CD0708304D023D
:101B10000318CD0103305406031D952D4030860671
:101B20005B08031D952D043087060330C807031892
:101B3000C90A0030C90703304902E83003194802D6
:101B4000031CAC2D0130FF007F08CC07C801C90180
:101B500064304C060319CC0153080319BC2DFD3029
:101B60004B02E83003194A020318BC2D0330CA07A0
:101B70000318CB0A0030CB078C108C1EED2D981C5F
:101B8000C32D1812181618191A081030500203180D
:101B9000D42D5008203E84001A088317800001309D
:101BA000FF007F08D007EB2DFC017C08213E84005C
:101BB00083170008FF007C08203E84007F08800017
:101BC0000130FF007F08FC070F307C02031CD52D7D
:101BD0001A080317AF0003138C123308FF003208F2
:101BE0008A0031088400300E8300FE0E7E0E09004C
:101BF000273083120313B900F430B800B80BFE2D60
:101C0000B90BFE2D032E303083120313B4000030C5
:101C10008A1597268A151A3083120313B900F830F3
:101C2000B800B80B112EB90B112E303083120313EC
:101C3000B40000308A1597268A15033083120313E7
:101C4000B9009730B800B80B232EB90B232E000033
:101C5000303083120313B40000308A1597268A159A
:101C6000033083120313B9009730B800B80B362E37
:101C7000B90B362E0000383083120313B400003045
:101C80008A1597268A15033083120313B9009730FB
:101C9000B800B80B492EB90B492E0000083083124A
:101CA0000313B40000308A1597268A150630831274
:101CB0000313B9003030B800B80B5C2EB90B5C2EA2
:101CC00083120313B401B40A00308A1597268A15CB
:101CD0001A3083120313B900F830B800B80B6E2E17
:101CE000B90B6E2E063083120313B40000308A1530
:101CF00097268A151A3083120313B900F830B800FA
:101D0000B80B802EB90B802E0C3083120313B40055
:101D100000308A1597268A15063083120313B900FE
:101D20003030B800B80B922EB90B922E0800B700D5
:101D3000371C9E2E831203130616A12E8312031343
:101D40000612871000000000831203138717341C4B
:101D5000AD2E831203130714B02E83120313071042
:101D60003408B50001300310B50CFF3E031DB32E3F
:101D7000351CBE2E831203130717C12E83120313C3
:101D800007133408B50002300310B50CFF3E031DE5
:101D9000C42E351CCF2E831203130515D22E8312A9
:101DA000031305113408B50003300310B50CFF3ED2
:101DB000031DD52E351CE02E831203130716E32EC8
:101DC0008312031307123408B50004300310B50C56
:101DD000FF3E031DE62E351CF12E831203138514DE
:101DE000F42E8312031385103408B5000530031058
:101DF000B50CFF3E031DF72E351C022F8312031373
:101E00008716052F8312031387123408B500063096
:101E10000310B50CFF3E031D082F351C132F831232
:101E200003130514162F8312031305103408B5008D
:101E300007300310B50CFF3E031D192F351C242F4E
:101E4000831203130516272F8312031305120000B4
:101E50000000831203138713033083120313B600A9
:101E60009730B500B50B322FB60B322F00000800AB
:101E700080308312B40000308A1597268A158312A9
:101E80000313B8014D08031D4A2F38085B3E840038
:101E90008830872F4D03031D522F3808523E84008F
:101EA0008830872F02304D06031D5B2F3808493ECE
:101EB00084008830872F03304D06031D642F3808B7
:101EC000403E84008830872F04304D06031D6D2F5F
:101ED0003808373E84008830872F05304D06031DB3
:101EE000762F38082E3E84008830872F06304D0626
:101EF000031D7F2F3808253E84008830872F073048
:101F00004D06031D922F38081C3E840088300318AC
:101F1000013EFF008A1500208A15B40001308A15A1
:101F200097268A150130FF007F0883120313B80734
:101F300008303802031C422FC030B40000308A152C
:101F400097268A1583120313B9014D08031DAD2F7F
:101F50003908523E84008830EA2F4D03031DB52F07
:101F60003908493E84008830EA2F02304D06031DAF
:101F7000BE2F3908403E84008830EA2F03304D06DA
:101F8000031DC72F3908373E84008830EA2F0430FC
:101F90004D06031DD02F39082E3E84008830EA2FCD
:101FA00005304D06031DD92F3908253E84008830A1
:101FB000EA2F06304D06031DE22F39081C3E84002F
:101FC0008830EA2F07304D06031DF52F39085B3E98
:101FD000840088300318013EFF008A1500208A150E
:101FE000B40001308A1597268A150130FF007F085A
:101FF00083120313B9070830390203180800A52F0C
:02400E00F4308C
:00000001FF
